{
  "contractName": "Base",
  "abi": [
    {
      "constant": true,
      "inputs": [],
      "name": "owner",
      "outputs": [
        {
          "name": "",
          "type": "address"
        }
      ],
      "payable": false,
      "stateMutability": "view",
      "type": "function"
    },
    {
      "constant": true,
      "inputs": [
        {
          "name": "",
          "type": "address"
        }
      ],
      "name": "ownerAnimalCount",
      "outputs": [
        {
          "name": "",
          "type": "uint256"
        }
      ],
      "payable": false,
      "stateMutability": "view",
      "type": "function"
    },
    {
      "constant": true,
      "inputs": [
        {
          "name": "",
          "type": "uint256"
        }
      ],
      "name": "animalToOwner",
      "outputs": [
        {
          "name": "",
          "type": "address"
        }
      ],
      "payable": false,
      "stateMutability": "view",
      "type": "function"
    },
    {
      "constant": false,
      "inputs": [
        {
          "name": "newOwner",
          "type": "address"
        }
      ],
      "name": "transferOwnership",
      "outputs": [],
      "payable": false,
      "stateMutability": "nonpayable",
      "type": "function"
    },
    {
      "inputs": [],
      "payable": false,
      "stateMutability": "nonpayable",
      "type": "constructor"
    },
    {
      "anonymous": false,
      "inputs": [
        {
          "indexed": false,
          "name": "id",
          "type": "uint256"
        },
        {
          "indexed": false,
          "name": "name",
          "type": "string"
        },
        {
          "indexed": false,
          "name": "age",
          "type": "uint8"
        },
        {
          "indexed": false,
          "name": "owner",
          "type": "address"
        }
      ],
      "name": "NewAnimal",
      "type": "event"
    },
    {
      "anonymous": false,
      "inputs": [
        {
          "indexed": true,
          "name": "previousOwner",
          "type": "address"
        },
        {
          "indexed": true,
          "name": "newOwner",
          "type": "address"
        }
      ],
      "name": "OwnershipTransferred",
      "type": "event"
    },
    {
      "constant": true,
      "inputs": [],
      "name": "getWelcomeText",
      "outputs": [
        {
          "name": "",
          "type": "string"
        }
      ],
      "payable": false,
      "stateMutability": "view",
      "type": "function"
    },
    {
      "constant": false,
      "inputs": [
        {
          "name": "_text",
          "type": "string"
        }
      ],
      "name": "setWelcomeText",
      "outputs": [],
      "payable": false,
      "stateMutability": "nonpayable",
      "type": "function"
    },
    {
      "constant": true,
      "inputs": [
        {
          "name": "_pos",
          "type": "uint256"
        }
      ],
      "name": "getAnimal",
      "outputs": [
        {
          "name": "id",
          "type": "uint256"
        },
        {
          "name": "name",
          "type": "string"
        },
        {
          "name": "age",
          "type": "uint8"
        },
        {
          "name": "owner",
          "type": "address"
        }
      ],
      "payable": false,
      "stateMutability": "view",
      "type": "function"
    },
    {
      "constant": true,
      "inputs": [
        {
          "name": "_owner",
          "type": "address"
        }
      ],
      "name": "getAnimalByOwner",
      "outputs": [
        {
          "name": "",
          "type": "uint256[]"
        }
      ],
      "payable": false,
      "stateMutability": "view",
      "type": "function"
    },
    {
      "constant": false,
      "inputs": [
        {
          "name": "_name",
          "type": "string"
        },
        {
          "name": "_age",
          "type": "uint8"
        },
        {
          "name": "_owner",
          "type": "address"
        }
      ],
      "name": "createAnimal",
      "outputs": [],
      "payable": false,
      "stateMutability": "nonpayable",
      "type": "function"
    }
  ],
  "bytecode": "0x6060604052600060055534156200001557600080fd5b60008054600160a060020a03191633600160a060020a0316179055606060405190810160405280603a81526020017f57656c636f6d6520426c6f636b6368616e6765722c207468697320636f6e747281526020017f61637420686173206a757374206265656e206465706c6f7965640000000000008152506001908051620000a292916020019062000371565b50620000f260408051908101604052600481527f53706f7400000000000000000000000000000000000000000000000000000000602082015260013364010000000062000478620001e482021704565b6200014160408051908101604052600581527f46696f6e61000000000000000000000000000000000000000000000000000000602082015260043364010000000062000478620001e482021704565b6200019060408051908101604052600581527f4d6f747469000000000000000000000000000000000000000000000000000000602082015260023364010000000062000478620001e482021704565b620001de6040805190810160405260038082527f4c6162000000000000000000000000000000000000000000000000000000000060208301523364010000000062000478620001e482021704565b620004c9565b6000600160028054806001018281620001fe9190620003f6565b916000526020600020906002020160006040805190810160405288815260ff881660208201529190508151819080516200023d92916020019062000371565b5060208201516001918201805460ff191660ff929092169190911790559290910360008181526003602090815260408083208054600160a060020a031916600160a060020a038a1690811790915583526004909152908190208054850190556005805490940190935592507f72c7668d071186ffb3be30906db6f108fd8829264039d91186bc457b350e55c9918391508690869086905184815260ff83166040820152600160a060020a038216606082015260806020820181815290820185818151815260200191508051906020019080838360005b838110156200032d57808201518382015260200162000313565b50505050905090810190601f1680156200035b5780820380516001836020036101000a031916815260200191505b509550505050505060405180910390a150505050565b828054600181600116156101000203166002900490600052602060002090601f016020900481019282601f10620003b457805160ff1916838001178555620003e4565b82800160010185558215620003e4579182015b82811115620003e4578251825591602001919060010190620003c7565b50620003f29291506200042a565b5090565b81548183558181151162000425576002028160020283600052602060002091820191016200042591906200044a565b505050565b6200044791905b80821115620003f2576000815560010162000431565b90565b6200044791905b80821115620003f25760006200046882826200047e565b5060018101805460ff1916905560020162000451565b50805460018160011615610100020316600290046000825580601f10620004a65750620004c6565b601f016020900490600052602060002090810190620004c691906200042a565b50565b610a4b80620004d96000396000f3006060604052600436106100985763ffffffff7c010000000000000000000000000000000000000000000000000000000060003504166345d3cc81811461009d57806365d6a1351461014b57806366bc0c88146101b15780638da5cb5b1461023b5780639af636e51461026a578063a936b8c9146102dc578063b8d64ad81461030d578063d81c513a1461032b578063f2fde38b14610341575b600080fd5b34156100a857600080fd5b6100b3600435610360565b60405184815260ff83166040820152600160a060020a038216606082015260806020820181815290820185818151815260200191508051906020019080838360005b8381101561010d5780820151838201526020016100f5565b50505050905090810190601f16801561013a5780820380516001836020036101000a031916815260200191505b509550505050505060405180910390f35b341561015657600080fd5b6101af60046024813581810190830135806020601f820181900481020160405190810160405281815292919060208401838380828437509496505050833560ff169360200135600160a060020a03169250610478915050565b005b34156101bc57600080fd5b6101c461060b565b60405160208082528190810183818151815260200191508051906020019080838360005b838110156102005780820151838201526020016101e8565b50505050905090810190601f16801561022d5780820380516001836020036101000a031916815260200191505b509250505060405180910390f35b341561024657600080fd5b61024e6106b4565b604051600160a060020a03909116815260200160405180910390f35b341561027557600080fd5b610289600160a060020a03600435166106c3565b60405160208082528190810183818151815260200191508051906020019060200280838360005b838110156102c85780820151838201526020016102b0565b505050509050019250505060405180910390f35b34156102e757600080fd5b6102fb600160a060020a0360043516610771565b60405190815260200160405180910390f35b341561031857600080fd5b6101af6004803560248101910135610783565b341561033657600080fd5b61024e6004356107af565b341561034c57600080fd5b6101af600160a060020a03600435166107ca565b600061036a610865565b600080600060028681548110151561037e57fe5b9060005260206000209060020201905085816000018260010160009054906101000a900460ff16600360008a815260200190815260200160002060009054906101000a9004600160a060020a0316828054600181600116156101000203166002900480601f0160208091040260200160405190810160405280929190818152602001828054600181600116156101000203166002900480156104615780601f1061043657610100808354040283529160200191610461565b820191906000526020600020905b81548152906001019060200180831161044457829003601f168201915b505050505092509450945094509450509193509193565b60006001600280548060010182816104909190610877565b916000526020600020906002020160006040805190810160405288815260ff881660208201529190508151819080516104cd9291602001906108a3565b5060208201516001918201805460ff191660ff92909216919091179055929091036000818152600360209081526040808320805473ffffffffffffffffffffffffffffffffffffffff1916600160a060020a038a1690811790915583526004909152908190208054850190556005805490940190935592507f72c7668d071186ffb3be30906db6f108fd8829264039d91186bc457b350e55c9918391508690869086905184815260ff83166040820152600160a060020a038216606082015260806020820181815290820185818151815260200191508051906020019080838360005b838110156105c85780820151838201526020016105b0565b50505050905090810190601f1680156105f55780820380516001836020036101000a031916815260200191505b509550505050505060405180910390a150505050565b610613610865565b60018054600181600116156101000203166002900480601f0160208091040260200160405190810160405280929190818152602001828054600181600116156101000203166002900480156106a95780601f1061067e576101008083540402835291602001916106a9565b820191906000526020600020905b81548152906001019060200180831161068c57829003601f168201915b505050505090505b90565b600054600160a060020a031681565b6106cb610865565b6106d3610865565b600160a060020a038316600090815260046020526040808220548291518059106106fa5750595b9080825280602002602001820160405250925060009150600090505b60025481101561076857600081815260036020526040902054600160a060020a0386811691161415610760578083838151811061074f57fe5b602090810290910101526001909101905b600101610716565b50909392505050565b60046020526000908152604090205481565b60005433600160a060020a0390811691161461079e57600080fd5b6107aa60018383610921565b505050565b600360205260009081526040902054600160a060020a031681565b60005433600160a060020a039081169116146107e557600080fd5b600160a060020a03811615156107fa57600080fd5b600054600160a060020a0380831691167f8be0079c531659141344cd1fd0a4f28419497f9722a3daafe3b4186f6b6457e060405160405180910390a36000805473ffffffffffffffffffffffffffffffffffffffff1916600160a060020a0392909216919091179055565b60206040519081016040526000815290565b8154818355818115116107aa576002028160020283600052602060002091820191016107aa919061098f565b828054600181600116156101000203166002900490600052602060002090601f016020900481019282601f106108e457805160ff1916838001178555610911565b82800160010185558215610911579182015b828111156109115782518255916020019190600101906108f6565b5061091d9291506109be565b5090565b828054600181600116156101000203166002900490600052602060002090601f016020900481019282601f106109625782800160ff19823516178555610911565b82800160010185558215610911579182015b82811115610911578235825591602001919060010190610974565b6106b191905b8082111561091d5760006109a982826109d8565b5060018101805460ff19169055600201610995565b6106b191905b8082111561091d57600081556001016109c4565b50805460018160011615610100020316600290046000825580601f106109fe5750610a1c565b601f016020900490600052602060002090810190610a1c91906109be565b505600a165627a7a7230582079f383df9ffb03bfb0b47c71c2787868d4831fec85c36bd69c2c49e579eceafa0029",
  "source": "pragma solidity ^0.4.18;\n\nimport './Ownable.sol';\n\ncontract Base is Ownable {\n\n    event NewAnimal(uint256 id, string name, uint8 age, address owner);\n\n    string welcomeText;\n\n    struct Animal {\n        string name;\n        uint8 age;\n    }\n\n    Animal[] animals;\n\n    mapping(uint256 => address) public animalToOwner;\n    mapping(address => uint256) public ownerAnimalCount;\n\n    uint256 animalCount = 0;\n\n    // This function ran when contract is deployed to blockchains. Setting a default welcometext\n    function Base() public {\n        welcomeText = \"Welcome Blockchanger, this contract has just been deployed\";\n        createAnimal(\"Spot\", uint8(1), msg.sender);\n        createAnimal(\"Fiona\", uint8(4), msg.sender);\n        createAnimal(\"Motti\", uint8(2), msg.sender);\n        createAnimal(\"Lab\", uint8(3), msg.sender);\n    }\n\n    // Returns the current welcome text\n    function getWelcomeText() public view returns (string){\n        return welcomeText;\n    }\n\n    // Owner of contract can set a new welcome text\n    function setWelcomeText(string _text) external onlyOwner {\n        welcomeText = _text;\n    }\n\n    function getAnimal(uint256 _pos) public constant returns (uint256 id, string name, uint8 age, address owner) {\n        Animal storage _animal = animals[_pos];\n        return (_pos, _animal.name, _animal.age, animalToOwner[_pos]);\n    }\n\n    function getAnimalByOwner(address _owner) public constant returns (uint[]){\n        uint[] memory result = new uint[](ownerAnimalCount[_owner]);\n        uint counter = 0;\n\n        for (uint i = 0; i < animals.length; i++) {\n            if (animalToOwner[i] == _owner) {\n                result[counter] = i;\n                counter++;\n            }\n        }\n        return result;\n    }\n\n    function createAnimal(string _name, uint8 _age, address _owner) public {\n        uint id = animals.push(Animal(_name, _age)) - 1;\n        animalToOwner[id] = _owner;\n        ownerAnimalCount[_owner]++;\n        animalCount++;\n        NewAnimal(id, _name, _age, _owner);\n    }\n}\n",
  "sourcePath": "/home/robin/webstorm/eth-truffle-vue/backend/eth/contracts/Base.sol",
  "compiler": {
    "name": "solc",
    "version": "0.4.19+commit.c4cbbb05.Emscripten.clang"
  },
  "schemaVersion": "1.0.1",
  "updatedAt": "2018-03-08T13:18:04.855Z"
}